{
  "contractName": "TripFactory",
  "abi": [
    {
      "inputs": [],
      "stateMutability": "nonpayable",
      "type": "constructor"
    },
    {
      "inputs": [
        {
          "internalType": "address",
          "name": "",
          "type": "address"
        }
      ],
      "name": "managers",
      "outputs": [
        {
          "internalType": "bool",
          "name": "",
          "type": "bool"
        }
      ],
      "stateMutability": "view",
      "type": "function"
    },
    {
      "inputs": [
        {
          "internalType": "uint256",
          "name": "",
          "type": "uint256"
        }
      ],
      "name": "trips",
      "outputs": [
        {
          "internalType": "address",
          "name": "",
          "type": "address"
        }
      ],
      "stateMutability": "view",
      "type": "function"
    },
    {
      "inputs": [
        {
          "internalType": "address",
          "name": "newManagerAddress",
          "type": "address"
        }
      ],
      "name": "addManager",
      "outputs": [],
      "stateMutability": "nonpayable",
      "type": "function"
    },
    {
      "inputs": [],
      "name": "createMockTrip",
      "outputs": [],
      "stateMutability": "nonpayable",
      "type": "function"
    },
    {
      "inputs": [
        {
          "internalType": "uint256",
          "name": "price",
          "type": "uint256"
        },
        {
          "internalType": "bool",
          "name": "active",
          "type": "bool"
        },
        {
          "internalType": "string",
          "name": "trainID",
          "type": "string"
        },
        {
          "internalType": "string",
          "name": "advertisedTimeAtLocation",
          "type": "string"
        },
        {
          "internalType": "string",
          "name": "locationSignature",
          "type": "string"
        }
      ],
      "name": "createTrip",
      "outputs": [],
      "stateMutability": "nonpayable",
      "type": "function"
    },
    {
      "inputs": [],
      "name": "getTrips",
      "outputs": [
        {
          "internalType": "address[]",
          "name": "",
          "type": "address[]"
        }
      ],
      "stateMutability": "view",
      "type": "function"
    }
  ],
  "bytecode": "0x608060405234801561001057600080fd5b5060018060003373ffffffffffffffffffffffffffffffffffffffff1673ffffffffffffffffffffffffffffffffffffffff16815260200190815260200160002060006101000a81548160ff021916908315150217905550611cb9806100776000396000f3fe608060405234801561001057600080fd5b50600436106100625760003560e01c80632d06177a1461006757806368c8d224146100ab578063d109e94f1461010a578063d4379f7f14610309578063f6824a7c14610313578063fdff9b4d14610381575b600080fd5b6100a96004803603602081101561007d57600080fd5b81019080803573ffffffffffffffffffffffffffffffffffffffff1690602001909291905050506103dd565b005b6100b361048d565b6040518080602001828103825283818151815260200191508051906020019060200280838360005b838110156100f65780820151818401526020810190506100db565b505050509050019250505060405180910390f35b610307600480360360a081101561012057600080fd5b81019080803590602001909291908035151590602001909291908035906020019064010000000081111561015357600080fd5b82018360208201111561016557600080fd5b8035906020019184600183028401116401000000008311171561018757600080fd5b91908080601f016020809104026020016040519081016040528093929190818152602001838380828437600081840152601f19601f820116905080830192505050505050509192919290803590602001906401000000008111156101ea57600080fd5b8201836020820111156101fc57600080fd5b8035906020019184600183028401116401000000008311171561021e57600080fd5b91908080601f016020809104026020016040519081016040528093929190818152602001838380828437600081840152601f19601f8201169050808301925050505050505091929192908035906020019064010000000081111561028157600080fd5b82018360208201111561029357600080fd5b803590602001918460018302840111640100000000831117156102b557600080fd5b91908080601f016020809104026020016040519081016040528093929190818152602001838380828437600081840152601f19601f82011690508083019250505050505050919291929050505061051b565b005b610311610795565b005b61033f6004803603602081101561032957600080fd5b8101908080359060200190929190505050610971565b604051808273ffffffffffffffffffffffffffffffffffffffff1673ffffffffffffffffffffffffffffffffffffffff16815260200191505060405180910390f35b6103c36004803603602081101561039757600080fd5b81019080803573ffffffffffffffffffffffffffffffffffffffff1690602001909291905050506109ad565b604051808215151515815260200191505060405180910390f35b600160003373ffffffffffffffffffffffffffffffffffffffff1673ffffffffffffffffffffffffffffffffffffffff16815260200190815260200160002060009054906101000a900460ff1661043357600080fd5b60018060008373ffffffffffffffffffffffffffffffffffffffff1673ffffffffffffffffffffffffffffffffffffffff16815260200190815260200160002060006101000a81548160ff02191690831515021790555050565b6060600080548060200260200160405190810160405280929190818152602001828054801561051157602002820191906000526020600020905b8160009054906101000a900473ffffffffffffffffffffffffffffffffffffffff1673ffffffffffffffffffffffffffffffffffffffff16815260200190600101908083116104c7575b5050505050905090565b600160003373ffffffffffffffffffffffffffffffffffffffff1673ffffffffffffffffffffffffffffffffffffffff16815260200190815260200160002060009054906101000a900460ff1661057157600080fd5b6000338686868686604051610585906109cd565b808773ffffffffffffffffffffffffffffffffffffffff1673ffffffffffffffffffffffffffffffffffffffff16815260200186815260200185151515158152602001806020018060200180602001848103845287818151815260200191508051906020019080838360005b8381101561060c5780820151818401526020810190506105f1565b50505050905090810190601f1680156106395780820380516001836020036101000a031916815260200191505b50848103835286818151815260200191508051906020019080838360005b83811015610672578082015181840152602081019050610657565b50505050905090810190601f16801561069f5780820380516001836020036101000a031916815260200191505b50848103825285818151815260200191508051906020019080838360005b838110156106d85780820151818401526020810190506106bd565b50505050905090810190601f1680156107055780820380516001836020036101000a031916815260200191505b509950505050505050505050604051809103906000f08015801561072d573d6000803e3d6000fd5b509080600181540180825580915050600190039060005260206000200160009091909190916101000a81548173ffffffffffffffffffffffffffffffffffffffff021916908373ffffffffffffffffffffffffffffffffffffffff1602179055505050505050565b600160003373ffffffffffffffffffffffffffffffffffffffff1673ffffffffffffffffffffffffffffffffffffffff16815260200190815260200160002060009054906101000a900460ff166107eb57600080fd5b60003361271060016040516107ff906109cd565b808473ffffffffffffffffffffffffffffffffffffffff1673ffffffffffffffffffffffffffffffffffffffff16815260200183815260200182151515158152602001806020018060200180602001848103845260038152602001807f35343500000000000000000000000000000000000000000000000000000000008152506020018481038352600a8152602001807f323032302d30322d313800000000000000000000000000000000000000000000815250602001848103825260028152602001807f4e720000000000000000000000000000000000000000000000000000000000008152506020019650505050505050604051809103906000f08015801561090e573d6000803e3d6000fd5b509080600181540180825580915050600190039060005260206000200160009091909190916101000a81548173ffffffffffffffffffffffffffffffffffffffff021916908373ffffffffffffffffffffffffffffffffffffffff160217905550565b6000818154811061097e57fe5b906000526020600020016000915054906101000a900473ffffffffffffffffffffffffffffffffffffffff1681565b60016020528060005260406000206000915054906101000a900460ff1681565b6112a880620009dc8339019056fe60806040523480156200001157600080fd5b50604051620012a8380380620012a8833981810160405260c08110156200003757600080fd5b81019080805190602001909291908051906020019092919080519060200190929190805160405193929190846401000000008211156200007657600080fd5b838201915060208201858111156200008d57600080fd5b8251866001820283011164010000000082111715620000ab57600080fd5b8083526020830192505050908051906020019080838360005b83811015620000e1578082015181840152602081019050620000c4565b50505050905090810190601f1680156200010f5780820380516001836020036101000a031916815260200191505b50604052602001805160405193929190846401000000008211156200013357600080fd5b838201915060208201858111156200014a57600080fd5b82518660018202830111640100000000821117156200016857600080fd5b8083526020830192505050908051906020019080838360005b838110156200019e57808201518184015260208101905062000181565b50505050905090810190601f168015620001cc5780820380516001836020036101000a031916815260200191505b5060405260200180516040519392919084640100000000821115620001f057600080fd5b838201915060208201858111156200020757600080fd5b82518660018202830111640100000000821117156200022557600080fd5b8083526020830192505050908051906020019080838360005b838110156200025b5780820151818401526020810190506200023e565b50505050905090810190601f168015620002895780820380516001836020036101000a031916815260200191505b506040525050506001600760008873ffffffffffffffffffffffffffffffffffffffff1673ffffffffffffffffffffffffffffffffffffffff16815260200190815260200160002060006101000a81548160ff0219169083151502179055508460028190555083600860016101000a81548160ff02191690831515021790555082600390805190602001906200032192919062000367565b5081600590805190602001906200033a92919062000367565b5080600490805190602001906200035392919062000367565b506000808190555050505050505062000416565b828054600181600116156101000203166002900490600052602060002090601f016020900481019282601f10620003aa57805160ff1916838001178555620003db565b82800160010185558215620003db579182015b82811115620003da578251825591602001919060010190620003bd565b5b509050620003ea9190620003ee565b5090565b6200041391905b808211156200040f576000816000905550600101620003f5565b5090565b90565b610e8280620004266000396000f3fe6080604052600436106101095760003560e01c8063a035b1fe11610095578063b67e8a0011610064578063b67e8a00146105a3578063c077136814610633578063ce164fdd146106c3578063eb02f80a14610728578063fdff9b4d1461073257610109565b8063a035b1fe146103e5578063a2b40d1914610410578063a6eb19101461044b578063ae3d2938146104db57610109565b8063349ef932116100dc578063349ef932146101e85780634dc621fa146102135780635475c69c1461023e57806365d892de146103065780639075d4e51461031d57610109565b80630144bda71461010e57806302fb0c5e1461013d57806312065fe01461016c5780632d06177a14610197575b600080fd5b34801561011a57600080fd5b5061012361079b565b604051808215151515815260200191505060405180910390f35b34801561014957600080fd5b506101526107ae565b604051808215151515815260200191505060405180910390f35b34801561017857600080fd5b506101816107c1565b6040518082815260200191505060405180910390f35b3480156101a357600080fd5b506101e6600480360360208110156101ba57600080fd5b81019080803573ffffffffffffffffffffffffffffffffffffffff1690602001909291905050506107c9565b005b3480156101f457600080fd5b506101fd61087a565b6040518082815260200191505060405180910390f35b34801561021f57600080fd5b50610228610880565b6040518082815260200191505060405180910390f35b34801561024a57600080fd5b506103046004803603602081101561026157600080fd5b810190808035906020019064010000000081111561027e57600080fd5b82018360208201111561029057600080fd5b803590602001918460018302840111640100000000831117156102b257600080fd5b91908080601f016020809104026020016040519081016040528093929190818152602001838380828437600081840152601f19601f820116905080830192505050505050509192919290505050610886565b005b34801561031257600080fd5b5061031b6108f6565b005b34801561032957600080fd5b506103e36004803603602081101561034057600080fd5b810190808035906020019064010000000081111561035d57600080fd5b82018360208201111561036f57600080fd5b8035906020019184600183028401116401000000008311171561039157600080fd5b91908080601f016020809104026020016040519081016040528093929190818152602001838380828437600081840152601f19601f8201169050808301925050505050505091929192905050506109e8565b005b3480156103f157600080fd5b506103fa610a58565b6040518082815260200191505060405180910390f35b34801561041c57600080fd5b506104496004803603602081101561043357600080fd5b8101908080359060200190929190505050610a5e565b005b34801561045757600080fd5b50610460610abe565b6040518080602001828103825283818151815260200191508051906020019080838360005b838110156104a0578082015181840152602081019050610485565b50505050905090810190601f1680156104cd5780820380516001836020036101000a031916815260200191505b509250505060405180910390f35b3480156104e757600080fd5b506105a1600480360360208110156104fe57600080fd5b810190808035906020019064010000000081111561051b57600080fd5b82018360208201111561052d57600080fd5b8035906020019184600183028401116401000000008311171561054f57600080fd5b91908080601f016020809104026020016040519081016040528093929190818152602001838380828437600081840152601f19601f820116905080830192505050505050509192919290505050610b5c565b005b3480156105af57600080fd5b506105b8610bcc565b6040518080602001828103825283818151815260200191508051906020019080838360005b838110156105f85780820151818401526020810190506105dd565b50505050905090810190601f1680156106255780820380516001836020036101000a031916815260200191505b509250505060405180910390f35b34801561063f57600080fd5b50610648610c6a565b6040518080602001828103825283818151815260200191508051906020019080838360005b8381101561068857808201518184015260208101905061066d565b50505050905090810190601f1680156106b55780820380516001836020036101000a031916815260200191505b509250505060405180910390f35b3480156106cf57600080fd5b50610712600480360360208110156106e657600080fd5b81019080803573ffffffffffffffffffffffffffffffffffffffff169060200190929190505050610d08565b6040518082815260200191505060405180910390f35b610730610d20565b005b34801561073e57600080fd5b506107816004803603602081101561075557600080fd5b81019080803573ffffffffffffffffffffffffffffffffffffffff169060200190929190505050610d87565b604051808215151515815260200191505060405180910390f35b600860009054906101000a900460ff1681565b600860019054906101000a900460ff1681565b600047905090565b600760003373ffffffffffffffffffffffffffffffffffffffff1673ffffffffffffffffffffffffffffffffffffffff16815260200190815260200160002060009054906101000a900460ff1661081f57600080fd5b6001600760008373ffffffffffffffffffffffffffffffffffffffff1673ffffffffffffffffffffffffffffffffffffffff16815260200190815260200160002060006101000a81548160ff02191690831515021790555050565b60005481565b60015481565b600760003373ffffffffffffffffffffffffffffffffffffffff1673ffffffffffffffffffffffffffffffffffffffff16815260200190815260200160002060009054906101000a900460ff166108dc57600080fd5b80600490805190602001906108f2929190610da7565b5050565b6000600660003373ffffffffffffffffffffffffffffffffffffffff1673ffffffffffffffffffffffffffffffffffffffff1681526020019081526020016000205490506000811161094757600080fd5b6000600660003373ffffffffffffffffffffffffffffffffffffffff1673ffffffffffffffffffffffffffffffffffffffff168152602001908152602001600020819055506000808154809291906001900391905055503373ffffffffffffffffffffffffffffffffffffffff166108fc829081150290604051600060405180830381858888f193505050501580156109e4573d6000803e3d6000fd5b5050565b600760003373ffffffffffffffffffffffffffffffffffffffff1673ffffffffffffffffffffffffffffffffffffffff16815260200190815260200160002060009054906101000a900460ff16610a3e57600080fd5b8060059080519060200190610a54929190610da7565b5050565b60025481565b600760003373ffffffffffffffffffffffffffffffffffffffff1673ffffffffffffffffffffffffffffffffffffffff16815260200190815260200160002060009054906101000a900460ff16610ab457600080fd5b8060028190555050565b60058054600181600116156101000203166002900480601f016020809104026020016040519081016040528092919081815260200182805460018160011615610100020316600290048015610b545780601f10610b2957610100808354040283529160200191610b54565b820191906000526020600020905b815481529060010190602001808311610b3757829003601f168201915b505050505081565b600760003373ffffffffffffffffffffffffffffffffffffffff1673ffffffffffffffffffffffffffffffffffffffff16815260200190815260200160002060009054906101000a900460ff16610bb257600080fd5b8060039080519060200190610bc8929190610da7565b5050565b60048054600181600116156101000203166002900480601f016020809104026020016040519081016040528092919081815260200182805460018160011615610100020316600290048015610c625780601f10610c3757610100808354040283529160200191610c62565b820191906000526020600020905b815481529060010190602001808311610c4557829003601f168201915b505050505081565b60038054600181600116156101000203166002900480601f016020809104026020016040519081016040528092919081815260200182805460018160011615610100020316600290048015610d005780601f10610cd557610100808354040283529160200191610d00565b820191906000526020600020905b815481529060010190602001808311610ce357829003601f168201915b505050505081565b60066020528060005260406000206000915090505481565b6002543414610d2e57600080fd5b600254600660003373ffffffffffffffffffffffffffffffffffffffff1673ffffffffffffffffffffffffffffffffffffffff168152602001908152602001600020819055506000808154809291906001019190505550565b60076020528060005260406000206000915054906101000a900460ff1681565b828054600181600116156101000203166002900490600052602060002090601f016020900481019282601f10610de857805160ff1916838001178555610e16565b82800160010185558215610e16579182015b82811115610e15578251825591602001919060010190610dfa565b5b509050610e239190610e27565b5090565b610e4991905b80821115610e45576000816000905550600101610e2d565b5090565b9056fea26469706673582212205ff392f6fcf024ae952a191fd2f59e410f95e7e6e0772a247759ac09b477c9ed64736f6c63430006020033a2646970667358221220fa6b4e06d3839e62f1dd54af53923212766d98e1f9e3c99ea8957de4f53777fe64736f6c63430006020033",
  "source": "pragma solidity ^0.6.2;\r\n\r\ncontract TripFactory {\r\n    address[] public trips;\r\n    mapping(address=>bool) public managers;\r\n\r\n    modifier restricted() {\r\n        require(managers[msg.sender]);\r\n        _;\r\n    }\r\n\r\n    constructor() public {\r\n        managers[msg.sender] = true;\r\n    }\r\n\r\n    function addManager(address newManagerAddress) public restricted {\r\n        managers[newManagerAddress] = true;\r\n    }\r\n\r\n    function createMockTrip() public restricted {\r\n        trips.push(address(\r\n            new Trip(\r\n                msg.sender,\r\n                10000,\r\n                true,\r\n                \"545\",\r\n                \"2020-02-18\",\r\n                \"Nr\")\r\n            ));\r\n    }\r\n\r\n    function createTrip(uint price, bool active, string memory trainID, string memory advertisedTimeAtLocation, string memory locationSignature) public restricted {\r\n        trips.push(address(\r\n            new Trip(\r\n                msg.sender,\r\n                price,\r\n                active,\r\n                trainID,\r\n                advertisedTimeAtLocation,\r\n                locationSignature)\r\n            ));\r\n    }\r\n\r\n    function getTrips() public view returns (address[] memory){\r\n        return trips;\r\n    }\r\n}\r\n\r\ncontract Trip {\r\n    uint public passengerCount;\r\n    uint public paybackRatio;\r\n    uint public price;\r\n    string public trainID;\r\n    string public locationSignature;\r\n    string public advertisedTimeAtLocation;\r\n    mapping(address=>uint) public passengers;\r\n    mapping(address=>bool) public managers;\r\n    bool public reimbursable;\r\n    bool public active;\r\n\r\n    modifier restricted() {\r\n        require(managers[msg.sender]);\r\n        _;\r\n    }\r\n\r\n    function addManager(address newManagerAddress) public restricted {\r\n        managers[newManagerAddress] = true;\r\n    }\r\n\r\n    constructor(address manager, uint _price, bool _active, string memory _trainID, string memory _advertisedTimeAtLocation, string memory _locationSignature) public {\r\n        managers[manager] = true;\r\n        price = _price;\r\n        active = _active;\r\n        trainID = _trainID;\r\n        advertisedTimeAtLocation = _advertisedTimeAtLocation;\r\n        locationSignature = _locationSignature;\r\n        passengerCount = 0;\r\n    }\r\n\r\n    function bookTrip() public payable{\r\n        require(msg.value == price);\r\n        passengers[msg.sender] = price;\r\n        passengerCount++;\r\n    }\r\n\r\n    function cancelTripBooking() public {\r\n        uint amount = passengers[msg.sender];\r\n        require(amount > 0);\r\n        passengers[msg.sender] = 0;\r\n        passengerCount--;\r\n        msg.sender.transfer(amount);\r\n    }\r\n\r\n    function getBalance() public view returns(uint) {\r\n        return address(this).balance;\r\n    }\r\n\r\n    function changePrice(uint _price) public restricted {\r\n        price = _price;\r\n    }\r\n\r\n    function changeTrainId(string memory _trainID) public restricted {\r\n        trainID = _trainID;\r\n    }\r\n\r\n    function changeLocationSignature(string memory _locationSignature) public restricted {\r\n        locationSignature = _locationSignature;\r\n    }\r\n\r\n    function changeAdvertisedTimeAtLoctaion(string memory _advertisedTimeAtLocation) public restricted {\r\n        advertisedTimeAtLocation = _advertisedTimeAtLocation;\r\n    }\r\n\r\n    //function refund() public {}\r\n\r\n    //function requestTimeAtLocation() public {}\r\n\r\n    //function fulfillTimeAtLocation() public {}\r\n\r\n}",
  "sourcePath": "C:\\Users\\Diddi\\Documents\\mjukvaruteknik\\examensarbete\\tqdt33\\contracts\\Trip.sol",
  "compiler": {
    "name": "solc",
    "version": "0.6.2+commit.bacdbe57.Emscripten.clang"
  },
  "schemaVersion": "3.0.23",
  "updatedAt": "2020-02-21T10:42:54.236Z",
  "devdoc": {
    "methods": {}
  },
  "userdoc": {
    "methods": {}
  }
}